:020000020000FC
:040000000C9442001A
:100080000C94620001E20EBF0FEF0DBF00E01FEF06
:1000900012B901B901BB10BB08B917B90EB91DB926
:1000A000F89440E04093900043E040939100B0E228
:1000B000B0939900BAE0B093980042E04093710089
:1000C00078940CC060E01899199901C01895C5E0A2
:1000D0005695770F770F650F670F189560E050E81A
:1000E00071E092E0009B01C0F9CF029B00C068B9AB
:0C00F000349901D0FCCF369972E00895DD
:00000001FF
