:100000000C9435000C945D000C945D000C945D0024
:100010000C945D000C945D000C945D000C945D00EC
:100020000C945D000C945D000C945D000C945D00DC
:100030000C945D000C945D000C945D000C945D00CC
:100040000C941B020C945D000C94E9010C94C30108
:100050000C9465020C945D000C945D000C945D00A2
:100060000C945D000C945D00800311241FBECFEF43
:10007000D8E0DEBFCDBF11E0A0E0B1E0EAE6F7E0F6
:1000800002C005900D92A034B107D9F721E0A0E499
:10009000B1E001C01D92A73EB207E1F710E0C5E351
:1000A000D0E004C02197FE010E94AD03C433D10704
:1000B000C9F70E9470020C94B3030C940000AF9235
:1000C000BF92CF92DF92EF92FF920F931F93CF9345
:1000D000DF936C017B018B01040F151FEB015E01A7
:1000E000AE18BF08C017D10759F06991D601ED913C
:1000F000FC910190F081E02DC6010995892B79F7DB
:10010000C501DF91CF911F910F91FF90EF90DF908C
:10011000CF90BF90AF900895FC01538D448D252F53
:1001200030E0842F90E0821B930B541710F0CF9691
:10013000089501970895FC01918D828D981761F0C3
:10014000A28DAE0FBF2FB11D5D968C91928D9F5FDA
:100150009F73928F90E008958FEF9FEF0895FC01B9
:10016000918D828D981731F0828DE80FF11D858D6C
:1001700090E008958FEF9FEF0895FC01918D228DFF
:10018000892F90E0805C9F4F821B91098F73992784
:1001900008958AE491E00E94BD0021E0892B09F4D2
:1001A00020E0822F089580E090E0892B29F00E94C2
:1001B000C90081110C9400000895FC01A48DA80FC2
:1001C000B92FB11DA35ABF4F2C91848D90E0019699
:1001D0008F739927848FA689B7892C93A089B189B9
:1001E0008C91837080648C93938D848D981306C05A
:1001F0000288F389E02D80818F7D80830895EF92BE
:10020000FF920F931F93CF93DF93EC0181E0888FD0
:100210009B8D8C8D98131AC0E889F989808185FFA0
:1002200015C09FB7F894EE89FF896083E889F98942
:1002300080818370806480839FBF81E090E0DF9144
:10024000CF911F910F91FF90EF900895F62E0B8D97
:1002500010E00F5F1F4F0F731127E02E8C8D8E1152
:100260000CC00FB607FCFACFE889F989808185FFB9
:10027000F5CFCE010E94DD00F1CFEB8DEC0FFD2F0D
:10028000F11DE35AFF4FF0829FB7F8940B8FEA8974
:10029000FB8980818062CFCFCF93DF93EC01888D83
:1002A0008823B9F0AA89BB89E889F9898C9185FDF1
:1002B00003C0808186FD0DC00FB607FCF7CF8C917F
:1002C00085FFF2CF808185FFEDCFCE010E94DD005A
:1002D000E9CFDF91CF9108953FB7F8948091450120
:1002E00090914601A0914701B091480126B5A89B85
:1002F00005C02F3F19F00196A11DB11D3FBFBA2FB8
:10030000A92F982F8827BC01CD01620F711D811D77
:10031000911D42E0660F771F881F991F4A95D1F7FC
:1003200008958F929F92AF92BF92CF92DF92EF92F9
:10033000FF924B015C010E946C016B017C010E94E9
:100340006C016C197D098E099F09683E7340810517
:100350009105A8F321E0821A9108A108B10888EE5E
:10036000C80E83E0D81EE11CF11C81149104A10485
:10037000B10429F7FF90EF90DF90CF90BF90AF903E
:100380009F908F9008951F920F920FB60F92112495
:100390002F933F934F935F936F937F938F939F938D
:1003A000AF93BF93EF93FF938AE491E00E94DD0047
:1003B000FF91EF91BF91AF919F918F917F916F913D
:1003C0005F914F913F912F910F900FBE0F901F9013
:1003D00018951F920F920FB60F9211242F938F939F
:1003E0009F93EF93FF93E0915A01F0915B0180811D
:1003F000E0916001F091610182FD1BC090818091CC
:1004000063018F5F8F7320916401821741F0E09147
:100410006301F0E0E65BFE4F958F80936301FF91EF
:10042000EF919F918F912F910F900FBE0F901F9082
:1004300018958081F4CF1F920F920FB60F9211245E
:100440002F933F938F939F93AF93BF9380914101DD
:1004500090914201A0914301B0914401309140013B
:1004600023E0230F2D3758F50196A11DB11D2093D0
:1004700040018093410190934201A0934301B093C6
:1004800044018091450190914601A0914701B091AE
:1004900048010196A11DB11D80934501909346012D
:1004A000A0934701B0934801BF91AF919F918F9165
:1004B0003F912F910F900FBE0F901F90189526E837
:1004C000230F0296A11DB11DD2CF1F920F920FB61E
:1004D0000F9211245A980F900FBE0F901F901895ED
:1004E000789484B5826084BD84B5816084BD85B50F
:1004F000826085BD85B5816085BD80916E0081601B
:1005000080936E00109281008091810082608093C0
:1005100081008091810081608093810080918000C2
:100520008160809380008091B10084608093B100ED
:100530008091B00081608093B00080917A008460E7
:1005400080937A0080917A00826080937A00809113
:100550007A00816080937A0080917A00806880932D
:100560007A001092C10068EE73E080E090E00E9493
:1005700091018FEF84B915B897E09AB998EF9BB9BC
:1005800017B885B9E0915A01F0915B0182E0808350
:10059000E0915601F09157011082E0915801F091DD
:1005A00059018FEC808310926201E0915E01F0911D
:1005B0005F0186E08083E0915C01F0915D018081C4
:1005C00080618083E0915C01F0915D0180818860B1
:1005D0008083E0915C01F0915D018081806880837F
:1005E000E0915C01F0915D0180818F7D808380913D
:1005F000C10084648093C1008091C00081608093B9
:10060000C00000E411E08DE1D82E90E0E92E90E0EA
:10061000F92ECC24C3948AE491E00E94BD00892B7A
:1006200099F08AE491E00E949B0090910001992347
:10063000A9F0823149F410920001C09249018091E1
:10064000C0008E7F8093C000E114F10421F30E946A
:10065000C900882301F30E940000DDCF9091490179
:10066000992391F310924901813B71F7C0920001E7
:100670008091C00081608093C0005A9A61E070E070
:1006800080E090E00E949101C3E1D1E068818AE4BA
:1006900091E00E94FF0069818AE491E00E94FF00DE
:1006A0006A818AE491E00E94FF006881669F602D64
:1006B000112481E0860F609528E030E067FD1AC0C4
:1006C000660F21503109D1F76095889F802D112444
:1006D000682788E090E067FD10C0660F0197D9F7A2
:1006E00060958AE491E00E94FF0023960C171D0795
:1006F00069F6AACF660F6D25E4CF660F6D25EECFA4
:10070000EAE4F1E01382128288EE93E0A0E0B0E028
:1007100084839583A683B78385E091E0918380836A
:1007200085EC90E09587848784EC90E097878687B6
:1007300080EC90E0918B808B81EC90E0938B828BAE
:1007400082EC90E0958B848B86EC90E0978B868B87
:10075000118E128E138E148E0895EE0FFF1F0590CA
:0A076000F491E02D0994F894FFCF06
:10076A000100000000FF005F008C004C01BD009BEF
:10077A0000AF004D6F73746F76612A4D61726969BB
:10078A00612A4D6F73746F76612A4D61726969616E
:10079A002A566F6C6F64796D797269766E612A2A4E
:00000001FF
