:100000000C9435000C945D000C945D000C945D0024
:100010000C945D000C945D000C945D000C945D00EC
:100020000C945D000C945D000C945D000C945D00DC
:100030000C945D000C945D000C945D000C945D00CC
:100040000C941B020C945D000C94E9010C94C30108
:100050000C9465020C945D000C945D000C945D00A2
:100060000C945D000C945D003C0311241FBECFEF87
:10007000D8E0DEBFCDBF11E0A0E0B1E0E2EEF6E0F7
:1000800002C005900D92A431B107D9F721E0A4E197
:10009000B1E001C01D92AB3BB207E1F710E0C5E350
:1000A000D0E004C02197FE010E946903C433D10748
:1000B000C9F70E9470020C946F030C940000AF9279
:1000C000BF92CF92DF92EF92FF920F931F93CF9345
:1000D000DF936C017B018B01040F151FEB015E01A7
:1000E000AE18BF08C017D10759F06991D601ED913C
:1000F000FC910190F081E02DC6010995892B79F7DB
:10010000C501DF91CF911F910F91FF90EF90DF908C
:10011000CF90BF90AF900895FC01538D448D252F53
:1001200030E0842F90E0821B930B541710F0CF9691
:10013000089501970895FC01918D828D981761F0C3
:10014000A28DAE0FBF2FB11D5D968C91928D9F5FDA
:100150009F73928F90E008958FEF9FEF0895FC01B9
:10016000918D828D981731F0828DE80FF11D858D6C
:1001700090E008958FEF9FEF0895FC01918D228DFF
:10018000892F90E0805C9F4F821B91098F73992784
:1001900008958EE191E00E94BD0021E0892B09F4D1
:1001A00020E0822F089580E090E0892B29F00E94C2
:1001B000C90081110C9400000895FC01A48DA80FC2
:1001C000B92FB11DA35ABF4F2C91848D90E0019699
:1001D0008F739927848FA689B7892C93A089B189B9
:1001E0008C91837080648C93938D848D981306C05A
:1001F0000288F389E02D80818F7D80830895EF92BE
:10020000FF920F931F93CF93DF93EC0181E0888FD0
:100210009B8D8C8D98131AC0E889F989808185FFA0
:1002200015C09FB7F894EE89FF896083E889F98942
:1002300080818370806480839FBF81E090E0DF9144
:10024000CF911F910F91FF90EF900895F62E0B8D97
:1002500010E00F5F1F4F0F731127E02E8C8D8E1152
:100260000CC00FB607FCFACFE889F989808185FFB9
:10027000F5CFCE010E94DD00F1CFEB8DEC0FFD2F0D
:10028000F11DE35AFF4FF0829FB7F8940B8FEA8974
:10029000FB8980818062CFCFCF93DF93EC01888D83
:1002A0008823B9F0AA89BB89E889F9898C9185FDF1
:1002B00003C0808186FD0DC00FB607FCF7CF8C917F
:1002C00085FFF2CF808185FFEDCFCE010E94DD005A
:1002D000E9CFDF91CF9108953FB7F894809119014C
:1002E00090911A01A0911B01B0911C0126B5A89B09
:1002F00005C02F3F19F00196A11DB11D3FBFBA2FB8
:10030000A92F982F8827BC01CD01620F711D811D77
:10031000911D42E0660F771F881F991F4A95D1F7FC
:1003200008958F929F92AF92BF92CF92DF92EF92F9
:10033000FF924B015C010E946C016B017C010E94E9
:100340006C016C197D098E099F09683E7340810517
:100350009105A8F321E0821A9108A108B10888EE5E
:10036000C80E83E0D81EE11CF11C81149104A10485
:10037000B10429F7FF90EF90DF90CF90BF90AF903E
:100380009F908F9008951F920F920FB60F92112495
:100390002F933F934F935F936F937F938F939F938D
:1003A000AF93BF93EF93FF938EE191E00E94DD0046
:1003B000FF91EF91BF91AF919F918F917F916F913D
:1003C0005F914F913F912F910F900FBE0F901F9013
:1003D00018951F920F920FB60F9211242F938F939F
:1003E0009F93EF93FF93E0912E01F0912F01808175
:1003F000E0913401F091350182FD1BC09081809124
:1004000037018F5F8F7320913801821741F0E0919F
:100410003701F0E0E25EFE4F958F80933701FF9148
:10042000EF919F918F912F910F900FBE0F901F9082
:1004300018958081F4CF1F920F920FB60F9211245E
:100440002F933F938F939F93AF93BF938091150109
:1004500090911601A0911701B091180130911401EB
:1004600023E0230F2D3758F50196A11DB11D2093D0
:1004700014018093150190931601A0931701B09376
:1004800018018091190190911A01A0911B01B0915E
:100490001C010196A11DB11D8093190190931A01B1
:1004A000A0931B01B0931C01BF91AF919F918F91BD
:1004B0003F912F910F900FBE0F901F90189526E837
:1004C000230F0296A11DB11DD2CF1F920F920FB61E
:1004D0000F9211245A980F900FBE0F901F901895ED
:1004E000789484B5826084BD84B5816084BD85B50F
:1004F000826085BD85B5816085BD80916E0081601B
:1005000080936E00109281008091810082608093C0
:1005100081008091810081608093810080918000C2
:100520008160809380008091B10084608093B100ED
:100530008091B00081608093B00080917A008460E7
:1005400080937A0080917A00826080937A00809113
:100550007A00816080937A0080917A00806880932D
:100560007A001092C10068EE73E080E090E00E9493
:1005700091018FEF84B915B897E09AB998EF9BB9BC
:1005800017B885B9E0912E01F0912F0182E08083A8
:10059000E0912A01F0912B0181E08083E0912C0110
:1005A000F0912D0185E1808310923601E0913201B6
:1005B000F091330186E08083E0913001F0913101C8
:1005C000808180618083E0913001F09131018081F0
:1005D00088608083E0913001F091310180818068F2
:1005E0008083E0913001F091310180818F7D8083A3
:1005F0008091C1008091C00061E070E080E090E0F7
:100600000E94910186B1809587708093000185B921
:1006100000E010E0C1E08EE191E00E94BD00892B76
:10062000A9F08EE191E00E949B0090910101992335
:10063000B9F090910001891309C010920101C09393
:100640001D018091C0008E7F8093C00001151105AF
:1006500011F30E94C9008823F1F20E940000DBCF51
:1006600090911D01992391F310921D01813B71F727
:10067000C093010185B9EACFEEE1F1E01382128265
:1006800088EE93E0A0E0B0E084839583A683B783EF
:1006900086E091E09183808385EC90E09587848764
:1006A00084EC90E09787868780EC90E0918B808B3C
:1006B00081EC90E0938B828B82EC90E0958B848B25
:1006C00086EC90E0978B868B118E128E138E148E93
:1006D0000895EE0FFF1F0590F491E02D0994F89412
:0206E000FFCF4A
:1006E200120100000000FF005F008C004C01BD0001
:0406F2009B00AF00BA
:00000001FF
