:1000000072C000009EC000009CC000009AC00000AA
:1000100098C0000096C0000094C0000092C000008C
:1000200090C000008EC000008CC000008AC000009C
:1000300088C0000086C0000084C0000082C00000AC
:1000400080C000007EC000007CC000007AC00000BC
:1000500078C0000076C0000074C00000CEC100006F
:1000600070C000009CC2000071C200006AC00000A5
:1000700068C0000066C0000064C0000062C00000EC
:1000800060C000005EC000005CC000005AC00000FC
:1000900027C20000FCC10000B8C2000052C000002E
:1000A00050C000004EC000004CC000004AC000001C
:1000B00048C0000046C0000044C0000042C000002C
:1000C00040C000003EC000003CC000003AC000003C
:1000D00038C0000036C0000034C0000032C000004C
:1000E00030C00000100311241FBECFEFD1E2DEBFED
:1000F000CDBF00E00CBF12E0A0E0B2E0E4E6F8E023
:1001000000E00BBF02C007900D92A431B107D9F7F0
:1001100023E0A4E1B2E001C01D92A835B207E1F7E7
:1001200010E0C3E7D0E000E005C021970109802F6F
:10013000FE018ED3C237D10780E00807B1F7C3D2E2
:100140008FC35ECFFC01A089B18982E08C93A48526
:10015000B5851C92A685B7858FEC8C93108EA489EB
:10016000B58986E08C93A289B3898C9180618C9348
:10017000A289B3898C9188608C93A289B3898C9170
:1001800080688C930288F389E02D80818F7D808345
:100190000895AF92BF92CF92DF92EF92FF920F93AA
:1001A0001F93CF93DF936C017B018B01040F151F0D
:1001B000EB015E01AE18BF08C017D10759F0699175
:1001C000D601ED91FC910190F081E02DC6011995C9
:1001D000892B79F7C501DF91CF911F910F91FF9086
:1001E000EF90DF90CF90BF90AF900895FC01538DBA
:1001F000448D252F30E0842F90E0821B930B541701
:1002000010F0CF96089501970895FC01918D828D8D
:10021000981761F0A28DAE0FBF2FB11D5D968C9126
:10022000928D9F5F9F73928F90E008958FEF9FEF65
:100230000895FC01918D828D981731F0828DE80F21
:10024000F11D858D90E008958FEF9FEF0895FC01DB
:10025000918D228D892F90E0805C9F4F821B9109A8
:100260008F73992708958EE192E0F1DF21E0892BC9
:1002700009F420E0822F08958BEB92E0E8DF21E083
:10028000892B09F420E0822F0895FC01A48DA80F8A
:10029000B92FB11DA35ABF4F2C91848D90E00196C8
:1002A0008F739927848FA689B7892C93A089B189E8
:1002B0008C91837080648C93938D848D981306C089
:1002C0000288F389E02D80818F7D80830895EF92ED
:1002D000FF920F931F93CF93DF93EC0181E0888F00
:1002E0009B8D8C8D98131AC0E889F989808185FFD0
:1002F00015C09FB7F894EE89FF896083E889F98972
:1003000080818370806480839FBF81E090E0DF9173
:10031000CF911F910F91FF90EF900895F62E0B8DC6
:1003200010E00F5F1F4F0F731127E02E8C8D8E1181
:100330000BC00FB607FCFACFE889F989808185FFE9
:10034000F5CFCE01A2DFF2CFEB8DEC0FFD2FF11D2B
:10035000E35AFF4FF0829FB7F8940B8FEA89FB892D
:1003600080818062D0CFCF93DF93EC01888D88238A
:10037000B1F0AA89BB89E889F9898C9185FD03C010
:10038000808186FD0CC00FB607FCF7CF8C9185FFEE
:10039000F2CF808185FFEDCFCE0177DFEACFDF910D
:1003A000CF91089580E090E0892B21F065DF8111E5
:1003B0000E94000080E090E0892B21F054DF811141
:1003C0000E94000080E090E0892B49F080E090E0FE
:1003D000892B29F00E94000081110E94000080E01A
:1003E00090E0892B49F080E090E0892B29F00E9471
:1003F000000081110C94000008951F920F920FB617
:100400000F9211242F933F938F939F93AF93BF939A
:1004100080911A0290911B02A0911C02B0911D02C2
:100420003091190223E0230F2D3758F50196A11DB5
:10043000B11D2093190280931A0290931B02A0937E
:100440001C02B0931D028091150290911602A0919A
:100450001702B09118020196A11DB11D80931502DB
:1004600090931602A0931702B0931802BF91AF9118
:100470009F918F913F912F910F900FBE0F901F90E2
:10048000189526E8230F0296A11DB11DD2CF1F9209
:100490000F920FB60F9211240BB60F922F933F932A
:1004A0004F935F936F937F938F939F93AF93BF937C
:1004B000EF93FF938EE192E0E8DEFF91EF91BF9121
:1004C000AF919F918F917F916F915F914F913F91EC
:1004D0002F910F900BBE0F900FBE0F901F9018958D
:1004E0001F920F920FB60F9211240BB60F922F93FB
:1004F0008F939F93EF93FF93E0912E02F0912F0241
:100500008081E0913402F091350282FD1DC090811E
:10051000809137028F5F8F7320913802821741F0EC
:10052000E0913702F0E0E25EFD4F958F8093370255
:10053000FF91EF919F918F912F910F900BBE0F9094
:100540000FBE0F901F9018958081F2CF1F920F92CF
:100550000FB60F9211240BB60F922F933F934F9328
:100560005F936F937F938F939F93AF93BF93EF931B
:10057000FF938BEB92E089DEFF91EF91BF91AF91FA
:100580009F918F917F916F915F914F913F912F91AB
:100590000F900BBE0F900FBE0F901F9018951F92DB
:1005A0000F920FB60F9211240BB60F922F938F93C9
:1005B0009F93EF93FF93E091CB02F091CC02808167
:1005C000E091D102F091D20282FD1DC09081809114
:1005D000D4028F5F8F732091D502821741F0E09192
:1005E000D402F0E0E554FD4F958F8093D402FF9143
:1005F000EF919F918F912F910F900BBE0F900FBE97
:100600000F901F9018958081F2CF1F920F920FB616
:100610000F92112459980F900FBE0F901F901895AC
:10062000EEE1F2E01382128248EE53E060E070E007
:10063000448355836683778385E092E0918380834A
:100640002DEC30E0358724872CEC30E03787268787
:1006500028EC30E0318B208B29EC30E0338B228B7F
:100660002AEC30E0358B248B2EEC30E0378B268B58
:10067000118E128E138E148EEBEBF2E01382128227
:1006800044835583668377839183808385EC90E0F0
:100690009587848784EC90E09787868780EC90E04C
:1006A000918B808B81EC90E0938B828B82EC90E03D
:1006B000958B848B86EC90E0978B868B118E128EB7
:1006C000138E148E0895789484B5826084BD84B5A9
:1006D000816084BD85B5826085BD85B5816085BD3D
:1006E00080916E00816080936E00109281008091F5
:1006F000810082608093810080918100816080937D
:100700008100809180008160809380008091B100A1
:1007100084608093B1008091B00081608093B000CC
:10072000809191008260809391008091910081601E
:1007300080939100809190008160809390008091DF
:10074000A10082608093A1008091A10081608093CC
:10075000A1008091A00081608093A0008091210180
:100760008260809321018091210181608093210129
:100770008091200181608093200180917A008460C3
:1007800080937A0080917A00826080937A008091D1
:100790007A00816080937A0080917A0080688093EB
:1007A0007A001092C1008FEF84B915B88EE08AB933
:1007B00081EF8BB9519A59988BEB92E0C3DC8EE1B3
:1007C00092E0C0DC8091C90084648093C900C1E0DC
:1007D0008BEB92E03CDD892BA9F08BEB92E015DDF1
:1007E000599A909100029923D9F09091C900916093
:1007F0009093C90010920002C0931402682F8EE1FA
:1008000092E065DD8EE192E022DD892B39F08EE108
:1008100092E0FBDC682F8BEB92E059DDC3DDD8CF93
:1008200090911402992361F0109214029091C900E2
:100830009E7F9093C900813B09F7C0930002DECFF1
:10084000C09300029091C9009E7F9093C900D6CFBB
:10085000EE0FFF1F881F8BBF0790F691E02D1994B4
:04086000F894FFCF3A
:1008640001000000006701C900F600B3012701057B
:040874000119010065
:00000001FF
