:1000000002C1000030C100002EC100002CC1000060
:100010002AC1000028C1000026C1000024C1000040
:1000200022C1000020C100001EC100001CC1000050
:100030001AC1000018C1000016C1000014C1000060
:1000400012C1000010C100000EC100000CC1000070
:100050000AC1000008C1000006C1000079C4000008
:1000600002C1000000C10000FEC00000FCC0000092
:10007000FAC00000F8C00000F6C00000F4C00000A4
:10008000B1C40000F0C00000EEC00000ECC00000F1
:10009000EAC00000E8C00000E6C00000E4C00000C4
:1000A000E2C00000E0C00000DEC00000DCC00000D4
:1000B000DAC00000D8C00000D6C00000D4C00000E4
:1000C000D2C00000D0C00000CEC00000CCC00000F4
:1000D000CAC00000C8C00000C6C00000C4C0000004
:1000E000C2C0000000002100240027002A002D00CB
:1000F0003000330001010000040107010A01000083
:100100002200250028002B002E00310034000201BF
:100110000000050108010B0100002000230026005B
:1001200029002C002F00320000010000030106010D
:10013000090105050505070508080808020202026D
:100140000A0A080804040404010101010101010173
:100150000303030303030303040707070C0C0C0C3E
:100160000C0C0C0C02020202060606060606060627
:100170000B0B0B0B0B0B0B0B0102102020080810B4
:100180002040102040800201020108040201010207
:1001900004081020408080402010080402018004E0
:1001A000020180402010080402010804020101023B
:1001B0000408102040800102040810204080000044
:1001C0000A0B02090C0D0E080703040100000000D1
:1001D000000000000000000000000000000000001F
:1001E00000000000000000000000121110000000DC
:1001F00000000000000000000000000000000000FF
:10020000000000005A0911241FBECFEFD1E2DEBF6B
:10021000CDBF00E00CBF12E0A0E0B2E0E0E3F4E10B
:1002200000E00BBF02C007900D92A634B107D9F7CA
:1002300022E0A6E4B2E001C01D92A73EB207E1F7BA
:1002400011E0C3E0D1E000E006C021970109802F52
:10025000FE010E94FA09C230D10780E00807A9F721
:100260005BD40C94160ACCCE96E0899FD001112461
:10027000A05ABD4F90967C936E935F9791E09196B4
:100280009C939197E091CD02F091CE029091CC0297
:10029000992339F0309751F0811108C080917C0288
:1002A0001994309719F05C968C91FACF0895CF92FB
:1002B000DF92EF92FF920F931F9396E0899FF001D8
:1002C0001124E05AFD4F11A2278D30A121303105B4
:1002D00049F178F02230310509F44FC0233031055F
:1002E00009F450C01F910F91FF90EF90DF90CF90D5
:1002F00008956623B9F361E070E0B6DF2FB7F89494
:1003000080915C0290915D02A0915E02B0915F02CB
:100310002FBF8093B8029093B902A093BA02B09312
:10032000BB02E0CF9FB7F894C0905C02D0905D0212
:10033000E0905E02F0905F029FBF0091B8021091C2
:10034000B9022091BA023091BB02C01AD10AE20A66
:10035000F30A0091CA021091CB0230E020E00C15A4
:100360001D052E053F0548F462E070E01F910F91D6
:10037000FF90EF90DF90CF9077CF6111B3CF63E024
:1003800070E0F4CF70E060E0F1CFAF92BF92CF9217
:10039000DF92EF92FF920F931F93CF93DF936C0145
:1003A0007B018B01040F151FEB015E01AE18BF0826
:1003B000C017D10759F06991D601ED91FC910190D8
:1003C000F081E02DC6011995892B79F7C501DF91E0
:1003D000CF911F910F91FF90EF90DF90CF90BF9042
:1003E000AF9008958150823108F059C0E82FF0E0B5
:1003F0008827E350FE4F8F4FFDC71D0221020F02D9
:10040000150219024F0224022A022E023402380277
:100410003C02420246024F024A02500254028091BC
:1004200080008F77809380000895809180008F7D79
:10043000F9CF80918000877FF5CF84B58F7784BD19
:10044000089584B58F7DFBCF8091B0008F77809326
:10045000B00008958091B0008F7DF9CF8091900019
:100460008F77809390000895809190008F7DF9CFD1
:1004700080919000877FF5CF8091A0008F77809347
:10048000A00008958091A0008F7DF9CF8091A000F9
:10049000877FF5CF809120018F7780932001089589
:1004A000809120018F7DF9CF80912001877FF5CF4A
:1004B000CF93DF93282F30E0F901E254FE4F84916F
:1004C000F901E858FE4FD491F901EE5CFE4FC4915A
:1004D000CC2399F0811186DFEC2FF0E0EE0FFF1FA7
:1004E000E85EFE4FA591B491EC91ED2381E090E0A0
:1004F00009F480E0DF91CF91089580E090E0FACF99
:10050000862FD6CF1F93CF93DF93282F30E0F901AA
:10051000E254FE4F8491F901E858FE4FD491F9015D
:10052000EE5CFE4FC491CC23A1F0162F81115ADF4F
:10053000EC2FF0E0EE0FFF1FE250FF4FA591B491BA
:100540008FB7F894EC91111108C0D095DE23DC939D
:100550008FBFDF91CF911F910895DE2BF8CF862FAB
:10056000642FD0CFCF93DF9390E0FC01E858FE4F8B
:1005700024918E5C9E4FFC0184918823C9F090E009
:10058000880F991FFC01EC51FF4FA591B491FC011C
:10059000E250FF4FC591D49161110DC09FB7F894FF
:1005A0008C91209582238C938881282328839FBF58
:1005B000DF91CF910895623051F49FB7F8943C9148
:1005C000822F809583238C93E8812E2BEFCF8FB7DA
:1005D000F894EC912E2B2C938FBFEACF862F642FAB
:1005E000C1CF3FB7F8948091470290914802A09103
:1005F0004902B0914A0226B5A89B05C02F3F19F0C9
:100600000196A11DB11D3FBFBA2FA92F982F882792
:10061000BC01CD01620F711D811D911D42E0660F6D
:10062000771F881F991F4A95D1F708958F929F923F
:10063000AF92BF92CF92DF92EF92FF924B015C019B
:10064000D0DF6B017C01CDDF6C197D098E099F091C
:10065000683E734081059105B0F321E0821A91084C
:10066000A108B10888EEC80E83E0D81EE11CF11C79
:1006700081149104A104B10431F7FF90EF90DF9051
:10068000CF90BF90AF909F908F900895089590E085
:1006900080E0089561E085E135DF6EE571E080E09E
:1006A00090E0C4DF60E085E12DCFCF93DF93EC01D4
:1006B00060E08E8127DF61E08E8124DF60E08E8143
:1006C00021DF8BE891E00197F1F7DF91CF91089559
:1006D000CF92DF92EF92FF920F931F93CF93DF930E
:1006E0006C017C0187E0E80EF11CD0E0C0E0062F31
:1006F00010E0B8010C2E02C0759567950A94E2F7D8
:100700006170F70181917F01FDDE2196C430D10532
:1007100081F7C601DF91CF911F910F91FF90EF906C
:10072000DF90CF90C2CFCF92DF92EF92FF920F93E4
:100730001F93CF93DF93EC01F62E642F8C81E2DEC2
:100740008D818F3F11F060E0DDDE0F2D10E08F8591
:1007500084FF23C06E0187E0C80ED11CF12CE12C70
:10076000B8010E2C02C0759567950A94E2F7617086
:10077000F60181916F01C6DEFFEFEF1AFF0A88E0F4
:10078000E816F10469F7CE01DF91CF911F910F9127
:10079000FF90EF90DF90CF9088CFB80184E07595FF
:1007A00067958A95E1F7CE0193DF6F2DCE01DF913A
:1007B000CF911F910F91FF90EF90DF90CF9088CF56
:1007C00040E0682F8FEC92E0AECF81E0F9DF8BE361
:1007D0009FE10197F1F70895CF93DF93823029F4D9
:1007E0009091DE0298609093DE028093E202109274
:1007F000E30280E48093E40280E18093E50280E5F7
:100800008093E60261E08091D302ACDE8091D40255
:100810008F3F11F061E0A6DE61E08091D502A2DE9B
:10082000CFECD2E09E012F5C32408091DE0284FD4D
:100830000AC084E090E02196281739073CF461E073
:100840008E8190DEEFCF88E090E0F5CF8BE39DE0E6
:100850000197F1F760E08091D30254DE60E080916F
:10086000D50250DE8091D4028F3F11F060E04ADE65
:100870008091DE0284FD2CC063E08FEC92E028DFE3
:10088000CBE4D6E4CE010197F1F763E08FEC92E080
:100890001FDF2197F1F763E08FEC92E019DF83E52A
:1008A00092E00197F1F762E08FEC92E011DF809126
:1008B000DE02806285DF84E08093DF028CE080DFEF
:1008C00084DF82E08093E00286E0DF91CF9178CFF1
:1008D000806276DF8BE496E40197F1F78091DE0287
:1008E00080626EDF83E592E00197F1F78091DE028E
:1008F000806266DFDCCFE1E09091E2029111E0E0FE
:10090000E195F0E0E153FD4F9489890F806858CF5D
:1009100041E009DF81E090E0089541E0682F8FEC2D
:1009200092E001DF81E090E008954FDF83E0E3DFB4
:1009300080E3F3DF80E3F1DF8AE3EFDF80E3EDDFE5
:1009400080E3EBDF8AE3E9DF80E3E7DF80E3E5CF05
:100950001F920F920FB60F9211242F933F938F93F4
:100960009F93AF93BF9380915C0290915D02A091A1
:100970005E02B0915F023091460223E0230F2D37D3
:1009800058F50196A11DB11D2093460280935C028B
:1009900090935D02A0935E02B0935F028091470244
:1009A00090914802A0914902B0914A020196A11D7E
:1009B000B11D8093470290934802A0934902B093DF
:1009C0004A02BF91AF919F918F913F912F910F90CC
:1009D0000FBE0F901F90189526E8230F0296A11DB9
:1009E000B11DD2CF1F920F920FB60F9211240BB6EA
:1009F0000F92EF92FF920F931F932F933F934F937A
:100A00005F936F937F938F939F93AF93BF93CF9396
:100A1000DF93EF93FF9320914D025AE0822F652FD1
:100A2000CAD4E82FF0E0EA5DFD4F008100935A023E
:100A3000E92FF0E0EA5DFD4F108110935B023091E9
:100A40004C02832FB8D4E82FF0E0EA5DFD4FD0814F
:100A5000D0935802E92FF0E0EA5DFD4FC081C093CA
:100A6000590240914B02842FA6D4E82FF0E0EA5DB2
:100A7000FD4FE080E0925602E92FF0E0EA5DFD4F85
:100A8000F080F09257024F5F4C3399F140934B0244
:100A900080911E0290911F02019791F483E02BDF59
:100AA000802F3BDF812F39DF8AE337DF8D2F35DF62
:100AB0008C2F33DF8AE331DF8E2D2FDF8F2D2DDF5B
:100AC000FF91EF91DF91CF91BF91AF919F918F9166
:100AD0007F916F915F914F913F912F911F910F9156
:100AE000FF90EF900F900BBE0F900FBE0F901F90D6
:100AF000189510924B023F5F3C3319F030934C0233
:100B0000C7CF10924C022F5F283119F020934D026D
:100B1000BFCF10924D02BCCF789484B5826084BD63
:100B200084B5816084BD85B5826085BD85B58160F1
:100B300085BD80916E00816080936E00109281006F
:100B4000809181008260809381008091810081602A
:100B500080938100809180008160809380008091EB
:100B6000B10084608093B1008091B0008160809377
:100B7000B0008091910082608093910080919100FB
:100B800081608093910080919000816080939000BB
:100B90008091A10082608093A1008091A10081607A
:100BA0008093A1008091A00081608093A00080913B
:100BB00021018260809321018091210181608093D5
:100BC00021018091200181608093200180917A0031
:100BD000846080937A0080917A00826080937A00AA
:100BE00080917A00816080937A0080917A00806899
:100BF00080937A001092C100F894109290008DE0DA
:100C00008093910082E08093710088E09DE390934F
:100C100099008093980078948FEF84B915B814B830
:100C200015B817B818B88FE080BB80EF81BB61E0C2
:100C300085E198DC60E085E165DC82E0CDDDC6E33E
:100C400061E08C2F8FDCCF5FCE33D1F760E085E1A0
:100C500059DC412C512C32014394C1E0D0E003E037
:100C600010E081E08093CC028FB7F89440915C0251
:100C700050915D0260915E0270915F028FBF809122
:100C8000BC029091BD02A091BE02B091BF02481B70
:100C9000590B6A0B7B0B8091C8029091C902B0E09E
:100CA000A0E084179507A607B70708F00FC1F12C3D
:100CB0008091C602F81658F4E091C202F091C30286
:100CC000EF0DF11D62E080814DDCF394F1CF312C0A
:100CD0008091C702381608F05DC0E32CF12CE0913A
:100CE000C402F091C502EE0DFF1D61E080813ADC87
:100CF000E091C402F091C502EE0DFF1D60E080811D
:100D000001DCD301C201032C04C0880F991FAA1F64
:100D1000BB1F0A94D2F75C016C01C094D094212CC3
:100D20008091C602281608F5822C912CE091C2020F
:100D3000F091C302E80DF91D8081BADB94012C5FAC
:100D40003F4FF901EE0FFF1FE05AFD4F892B41F491
:100D5000808191818A299B29918380832394E0CF8C
:100D6000808191818C219D21F7CFE091C402F09187
:100D7000C502EE0DFF1D61E08081C4DB8091C402DD
:100D80009091C502E80EF91E60E0F7018081EADB70
:100D900033949ECF20E6E22E22E0F22E6701F60188
:100DA000878D90A1892B31F4148E2FEF3FEF368F72
:100DB000258F11A236E0C30ED11C5CE9C51652E0A6
:100DC000D50669F7912C8091C602981608F052C09A
:100DD000812CA92CB12CAA0CBB1CC50188599D4F94
:100DE0005C012091C702821608F042C0F5016081C3
:100DF0007181082C02C0769567950A94E2F7929E5D
:100E000090011124280D311DE0E6F2E080E0458DCF
:100E1000568D2417350709F44BC28F5F36968A30FA
:100E2000B1F760FF23C0E0E6F2E090E080E0448D9F
:100E3000411117C0E091C002F091C102E20FF31F0F
:100E4000408156E0589FF001599FF00D1124E05A5F
:100E5000FD4F448F368F258F10A2178E61E027DA61
:100E600005C0019636968A30910509F78394B9CF6B
:100E70009394A9CF80E0F70191A19111892FF6E019
:100E8000EF0EF11CCE14DF04B1F79FB7F894409138
:100E90005C0250915D0260915E0270915F029FBFA3
:100EA0004093BC025093BD026093BE027093BF0298
:100EB000882361F080918102882341F080917F0234
:100EC00090918002D0907C02019719F01092CC0290
:100ED000D12CC090240280915A028C1131C0909183
:100EE0005B028091250298132BC09091580280914B
:100EF0002202981325C090915902809123029813E1
:100F00001FC09091560280912002981319C09091B1
:100F1000570280912102981313C08091540290913E
:100F20005502892B69F484E0E82EF12CB3DB6EE5E1
:100F300071E080E090E07ADB21E0E21AF108B1F79D
:100F4000DD2009F44FC031E4D3120FC0A3DB1092AF
:100F50001F0210921E02E9DC1092530210925202FC
:100F600010925102109250023DC052E4D51208C0B6
:100F700091DB82E090E090931F0280931E02EBCF02
:100F800093E4D91239C086DB10931F0200931E022E
:100F9000109253021092520210925102109250027B
:100FA000C4DC83E0A8DC8C2DB8DC80912502B5DCA4
:100FB0008AE3B3DC80912202B0DC80912302ADDCB5
:100FC0008AE3ABDC80912002A8DC80912102A5DCC1
:100FD0008CE091DC8091540290915502892B51F460
:100FE00081E49BDC80E090E0892B09F43ACE0E94FA
:100FF000000033CE80E2F5CFE4E4DE121AC0109296
:10100000530210925202109251021092500280919B
:101010004E0290914F02019690934F0280934E02A0
:1010200062E070E0D4D1909355028093540232DB99
:10103000D9CFFAE2DF1211C0C8DBD0931F02C093F0
:101040001E0261E085E15EDA6CEB72E080E090E028
:10105000EDDA60E085E156DA7FCF23E2D2127DC07F
:1010600019DB109253021092520210925102109208
:101070005002D0901C02F0901D024D2D0D2C000C42
:10108000550B405351099AE0949F9001959F300D64
:1010900011244F2D0F2C000C550B40535109420FBA
:1010A000531F483151050CF052C0E0901A02F091E4
:1010B0001B026E2D0E2C000C770B60537109969F4E
:1010C000D001979FB00D11242F2F0F2E000C330B42
:1010D000205331092A0F3B1F2C333105C4F5C09032
:1010E0001802E09119026C2D0C2C000C770B605348
:1010F0007109969FD001979FB00D11248E2F0E2E4F
:10110000000C990BC0978A0F9B1F8C339105FCF440
:1011100060911E0270911F026115710539F44093B0
:101120004D0220934C0280934B025CCF62307105DC
:1011300009F058CFD0922402E0922202C0922002FD
:10114000F0922502F0932302E09321024BCF6EE54B
:1011500071E080E090E06ADA6ACF9CDA80911E024A
:1011600090911F02009709F052C0E0905202F09057
:10117000530283E08E0DBFDB8D2DCFDB33E0E31612
:10118000F10461F174F4E114F10409F1EA94EF2837
:1011900009F028CFD0921D021093530200935202FF
:1011A00021CF96E0E916F10411F1E7E0EE16F10423
:1011B00039F1F4E0EF16F10409F014CFD0921B02DC
:1011C00086E090E090935302809352020BCFD0922E
:1011D0001C02D0935302C093520204CFD0921A0241
:1011E00024E030E03093530220935202FBCED092A1
:1011F0001802E7E0F0E0F0935302E0935202F2CEDF
:10120000D09219021092530210925202EBCE029722
:1012100009F0E8CEE0905002F090510283E08E0D8C
:101220006ADB8D2D7ADBF3E0EF16F10461F174F4E3
:10123000E114F10409F1EA94EF2809F0D3CED09239
:101240001D021093510200935002CCCE56E0E516D9
:10125000F10411F187E0E816F10439F194E0E916A0
:10126000F10409F0BFCED0921B0226E030E03093AB
:10127000510220935002B6CED0921C02D09351025C
:10128000C0935002AFCED0921A02E4E0F0E0F093A7
:101290005102E0935002A6CED092180287E090E06F
:1012A00090935102809350029DCED092190258CE55
:1012B0006170D5CD1092D2021092D1028EE392E0ED
:1012C0009093D0028093CF028DE18093D3028CE182
:1012D0008093D4028AE18093D50289E18093D6027B
:1012E00088E18093D70287E18093D80286E18093DA
:1012F000D9021092DA021092DB021092DC021092F4
:10130000DD021092DE0281E067DA10926202109232
:101310006602109265021092670284E392E0909355
:10132000610280936002ECE7F2E010821482138283
:101330001582369682E0E83BF807B9F784E092E040
:101340009093C3028093C20280E092E09093C50222
:101350008093C40284E08093C6028093C70288E031
:1013600092E09093C1028093C0028AE090E0909353
:10137000C9028093C80284EF91E09093CB028093DE
:10138000CA021092CE021092CD021092BC021092AC
:10139000BD021092BE021092BF021092CC02809148
:1013A0004E0290914F0262E070E011D0909355028E
:1013B000809354020895991B79E004C0991F9617F1
:1013C00008F0961B881F7A95C9F78095089597FBBA
:1013D000072E16F4009406D077FD08D013D007FC32
:1013E00005D03EF4909581959F4F08957095619535
:1013F0007F4F0895EE0FFF1F881F8BBF0790F69158
:10140000E02D1994AA1BBB1B51E107C0AA1FBB1FEB
:10141000A617B70710F0A61BB70B881F991F5A9580
:10142000A9F780959095BC01CD010895F894FFCF60
:101430003A3B3C3D36373839313233413435364228
:10144000373839432A3023443030303030300100CF
:10145000303030303030303132333435363738395F
:1014600000000000EE02AF028002000000008804CD
:06147000C501470346031D
:00000001FF
