:1000000001C100001EC100001CC100001AC1000097
:1000100018C1000016C1000014C1000012C1000088
:1000200010C100000EC100000CC100000AC1000098
:1000300008C1000006C1000004C1000002C10000A8
:1000400000C1000064C20000FCC00000FAC0000053
:10005000F8C00000F6C00000F4C000000EC20000AE
:10006000F0C00000EEC00000ECC00000EAC00000DC
:10007000E8C00000E6C00000E4C00000E2C00000EC
:10008000E0C00000DEC00000DCC00000DAC00000FC
:10009000D8C00000D6C00000D4C00000D2C000000C
:1000A000D0C00000CEC00000CCC00000CAC000001C
:1000B000C8C00000C6C00000C4C00000C2C000002C
:1000C000C0C00000BEC00000BCC00000BAC000003C
:1000D000B8C00000B6C00000B4C00000B2C000004C
:1000E000B0C00000000020002300260029002C00E2
:1000F0002F00320000010000030106010901000089
:100100000A0B02090C0D0E08070304010000000091
:1001100000000000000000000000000000000000DF
:10012000000000000000000000001211100000009C
:1001300000000000000000000000000000000000BF
:100140000000000000002200250028002B002E00E7
:100150003100340002010000050108010B0100001C
:100160002100240027002A002D0030003300010167
:100170000000040107010A01050505050705080837
:100180000808020202020A0A080804040404010121
:100190000101010101010303030303030303040736
:1001A00007070C0C0C0C0C0C0C0C020202020606CD
:1001B0000606060606060B0B0B0B0B0B0B0B0102C0
:1001C0001020200808102040102040800201020169
:1001D0000804020101020408102040808040201021
:1001E000080402018004020180402010080402017A
:1001F00008040201010204081020408001020408E2
:100200001020408011241FBECFEFD1E2DEBFCDBF52
:1002100000E00CBF12E0A0E0B2E0E4E7FBE000E0A9
:100220000BBF02C007900D92AC34B107D9F722E0A2
:10023000ACE4B2E001C01D92A836B207E1F7ECD100
:1002400097C4DECE8150823108F059C0E82FF0E02B
:100250008827E35DFE4F8F4F83C44D0151013F015D
:10026000450149017F0154015A015E0164016801A1
:100270006C01720176017F017A0180018401809115
:1002800080008F77809380000895809180008F7D1B
:10029000F9CF80918000877FF5CF84B58F7784BDBB
:1002A000089584B58F7DFBCF8091B0008F778093C8
:1002B000B00008958091B0008F7DF9CF80919000BB
:1002C0008F77809390000895809190008F7DF9CF73
:1002D00080919000877FF5CF8091A0008F778093E9
:1002E000A00008958091A0008F7DF9CF8091A0009B
:1002F000877FF5CF809120018F778093200108952B
:10030000809120018F7DF9CF80912001877FF5CFEB
:10031000CF93DF93282F30E0F901E250FF4F849113
:10032000F901E254FE4FD491F901E858FE4FC4910F
:10033000CC2399F0811186DFEC2FF0E0EE0FFF1F48
:10034000EC51FF4FA591B491EC91ED2381E090E049
:1003500009F480E0DF91CF91089580E090E0FACF3A
:100360001F93CF93DF93282F30E0F901E250FF4F26
:100370008491F901E254FE4FD491F901E858FE4FFF
:10038000C491CC23A1F0162F81115CDFEC2FF0E09B
:10039000EE0FFF1FEC5BFE4FA591B4918FB7F89461
:1003A000EC91111108C0D095DE23DC938FBFDF9153
:1003B000CF911F910895DE2BF8CF3FB7F89480912D
:1003C000510290915202A0915302B091540226B56D
:1003D000A89B05C02F3F19F00196A11DB11D3FBF7D
:1003E000BA2FA92F982F8827BC01CD01620F711D4C
:1003F000811D911D42E0660F771F881F991F4A9546
:10040000D1F708958F929F92AF92BF92CF92DF92D1
:10041000EF92FF924B015C01D0DF6B017C01CDDFDD
:100420006C197D098E099F09683E7340810591050D
:10043000B0F321E0821A9108A108B10888EEC80E35
:1004400083E0D81EE11CF11C81149104A104B104C5
:1004500031F7FF90EF90DF90CF90BF90AF909F90DB
:100460008F90089561E082E17BDF6EE571E080E0CE
:1004700090E0C8DF60E082E173CF1F920F920FB669
:100480000F9211242F933F938F939F93AF93BF931A
:1004900080914D0290914E02A0914F02B091500276
:1004A00030914C0223E0230F2D3758F50196A11D02
:1004B000B11D20934C0280934D0290934E02A09365
:1004C0004F02B09350028091510290915202A0913C
:1004D0005302B09154020196A11DB11D80935102A7
:1004E00090935202A0935302B0935402BF91AF91E4
:1004F0009F918F913F912F910F900FBE0F901F9062
:10050000189526E8230F0296A11DB11DD2CF1F9288
:100510000F920FB60F9211242F933F934F935F9337
:100520006F937F938F939F93809157028F5F8093F8
:1005300057028C3361F490915602809155021092CB
:1005400057029F5F9C3309F45CC0909356028091E0
:1005500055022AE0622FF8D2482F50E050935902FA
:1005600040935802892F90E090935B0280935A0247
:1005700080915602E9D2482F50E050935D0240939B
:100580005C02892F90E090935F0280935E028091DD
:100590005702DAD2482F50E0509361024093600234
:1005A000892F90E09093630280936202809104020D
:1005B000CBD2482F50E05093080240930702892F76
:1005C00090E090930A028093090280910502BCD2C8
:1005D000282F30E030930C0220930B02892F90E0FB
:1005E00090930E0280930D029F918F917F916F9156
:1005F0005F914F913F912F910F900FBE0F901F90E1
:100600001895109256028F5F883119F08093550229
:100610009ECF109255029BCF789484B5826084BDA2
:1006200084B5816084BD85B5826085BD85B58160F6
:1006300085BD80916E00816080936E001092810074
:10064000809181008260809381008091810081602F
:1006500080938100809180008160809380008091F0
:10066000B10084608093B1008091B000816080937C
:10067000B000809191008260809391008091910000
:1006800081608093910080919000816080939000C0
:100690008091A10082608093A1008091A10081607F
:1006A0008093A1008091A00081608093A000809140
:1006B00021018260809321018091210181608093DA
:1006C00021018091200181608093200180917A0036
:1006D000846080937A0080917A00826080937A00AF
:1006E00080917A00816080937A0080917A0080689E
:1006F00080937A001092C100F894109280008DE0EF
:100700008093810082E080936F0088E09DE3909366
:1007100089008093880078948FEF84B915B887B9E1
:1007200018B8E0EDF1E02491EAE8F1E08491882343
:1007300099F090E0880F991FFC01E25AFE4FA591B5
:10074000B491FC01EC5BFE4F859194918FB7F894C6
:10075000EC91E22BEC938FBF60E082E101DEC1E41B
:10076000D2E0888199819927FC01E254FE4F2491BF
:1007700088589E4FFC0184918823C9F090E0880F2F
:10078000991FFC01E25AFE4F45915491FC01EC5B2C
:10079000FE4FA591B4919FB7F894FA013081822F52
:1007A000809583238083EC912E2B2C939FBF60E058
:1007B0008881D6DD2296F2E0CB34DF0791F61AE08D
:1007C00050E0452E50E0552E6BE0662E712C7AE0FD
:1007D000C72ED12CEE24E394F12CC0916602D09167
:1007E0006702209709F495C0219709F4BDC0809154
:1007F000640280FD64C020915802309159028091BA
:100800000702909108022817390709F058C0209173
:100810005A0230915B028091090290910A022817D6
:10082000390709F04CC020915C0230915D02809143
:100830000B0290910C022817390709F040C0209153
:100840005E0230915F0280910D0290910E02281796
:100850003907A9F58091600290916102892B79F5A1
:100860008091620290916302892B49F5E3E0AE2EFC
:10087000B12CF8DDC5E3D2E073E1872E72E0972E4C
:100880008881229688B9F4018081F2E08F0E911C54
:1008900085B962E070E080E090E0B4DD82E0CF33C3
:1008A000D80771F76EE571E080E090E0ABDD91E094
:1008B000A91AB108F1F610926702109266028AE155
:1008C00027DD892B09F0A6C0CDDD809166029091CD
:1008D0006702009709F085C0809155028F5F809371
:1008E0005502883108F07AC0612F2ED1282F30E0D0
:1008F0003093590220935802892F90E090935B0225
:1009000080935A024114510409F467CF0E940000F9
:1009100064CF35E3832E32E0932E48E5A42E42E0E7
:10092000B42ED4018C91B2E08B0E911C88B9CE010B
:100930008D7FD501ED91FC91EE0FFF1FE35EFD4F22
:10094000019781F48081805885B962E070E080E091
:1009500090E058DD2196B2E0AB0EB11CC630D10557
:1009600001F745CF8081F0CF8091640280FD2FC0D8
:10097000D0921202C0921102B5E38B2EB2E09B2EF0
:10098000C7E0AC2EC2E0BC2ED0E0C0E0F401808114
:10099000F2E08F0E911C88B9CE018D7FD501ED91CB
:1009A000FC91EE0FFF1FE35EFD4F0197A9F48081DC
:1009B000805885B962E070E080E090E023DD219608
:1009C000B2E0AB0EB11CC630D10501F710CF70926A
:1009D000120260921102D0CF8081EBCF10925502AB
:1009E00091CF019709F08ECF809104028F5F8093A1
:1009F0000402883198F7612FA7D0282F30E0309378
:100A0000080220930702892F90E090930A028093B6
:100A1000090278CF8BE17CDC892BC9F523DD80913D
:100A20006602909167020097C9F4809156028F5F29
:100A3000809356028C3378F4612F86D0282F30E0D3
:100A400030935D0220935C02892F90E090935F02C7
:100A500080935E0257CF1092560254CF019709F04F
:100A600051CF809105028F5F809305028C3398F7F8
:100A7000612F6AD0282F30E030930C0220930B02B4
:100A8000892F90E090930E0280930D023BCF8CE172
:100A90003FDC892B31F4E6DCF0926702E0926602DB
:100AA00031CF8DE135DC892B59F4DCDC8091640297
:100AB0009091650201969093650280936402ECCF59
:100AC00089E126DCEC01892B09F01CCFCBDC65E346
:100AD000A62E62E0B62ED5018C91B2E0AB0EB11C11
:100AE00088B92097A1F4E0910202F0910302EE0F81
:100AF000FF1FE35EFD4F808185B968EE73E080E003
:100B000090E080DC2196C630D10529F7FBCE2091FC
:100B1000000230910102C130D10521F4220F331FB0
:100B2000F901E7CF8091020290910302820F931F97
:100B300030930302209302029093010280930002FB
:100B4000880F991FFC01D5CF991B79E004C0991F2C
:100B5000961708F0961B881F7A95C9F78095089517
:100B6000EE0FFF1F881F8BBF0790F691E02D1994A1
:040B7000F894FFCF27
:100B74000100010000010000000000000000000B63
:100B8400000A008800C70088008A00C800C000F975
:100B940000A400B000990092008200F80080009048
:100BA400008800FF007C007A0076006E005E003E44
:0C0BB400001A001B001C001D00190000AE
:00000001FF
